{
  "contractName": "Created",
  "abi": [
    {
      "constant": true,
      "inputs": [],
      "name": "created",
      "outputs": [
        {
          "name": "",
          "type": "uint256"
        }
      ],
      "payable": false,
      "stateMutability": "view",
      "type": "function"
    },
    {
      "inputs": [],
      "payable": false,
      "stateMutability": "nonpayable",
      "type": "constructor"
    }
  ],
  "bytecode": "0x6080604052348015600f57600080fd5b5042600081905550609e806100256000396000f300608060405260043610603f576000357c0100000000000000000000000000000000000000000000000000000000900463ffffffff168063325a19f1146044575b600080fd5b348015604f57600080fd5b506056606c565b6040518082815260200191505060405180910390f35b600054815600a165627a7a723058209d2525fd5a3d1798cfa63006913a6a257aeee78bd351a10e8f2bc31e78672dfb0029",
  "source": "pragma solidity ^0.4.24;\n\n/**\n * The Created contract: Used to mark the creation times of contracts\n */\n\ncontract Created {\n\n    uint public created;\n\n    /**\n     * @dev constructs a new Created contract and sets creations time to `now`\n     */\n    function Created() public {\n        created = now;\n    }\n}\n",
  "sourcePath": "/Users/rawad/github.com/auction/sdk/contracts/Created.sol",
  "compiler": {
    "name": "solc",
    "version": "0.4.24+commit.e67f0147.Emscripten.clang"
  },
  "schemaVersion": "2.0.1",
  "updatedAt": "2018-11-18T06:18:39.624Z"
}