{
  "contractName": "GNRAuction",
  "abi": [
    {
      "constant": true,
      "inputs": [],
      "name": "quantity",
      "outputs": [
        {
          "name": "",
          "type": "uint256"
        }
      ],
      "payable": false,
      "stateMutability": "view",
      "type": "function"
    },
    {
      "constant": true,
      "inputs": [],
      "name": "bidPrice",
      "outputs": [
        {
          "name": "",
          "type": "uint256"
        }
      ],
      "payable": false,
      "stateMutability": "view",
      "type": "function"
    },
    {
      "constant": true,
      "inputs": [],
      "name": "itemTitle",
      "outputs": [
        {
          "name": "",
          "type": "string"
        }
      ],
      "payable": false,
      "stateMutability": "view",
      "type": "function"
    },
    {
      "constant": true,
      "inputs": [],
      "name": "created",
      "outputs": [
        {
          "name": "",
          "type": "uint256"
        }
      ],
      "payable": false,
      "stateMutability": "view",
      "type": "function"
    },
    {
      "constant": true,
      "inputs": [],
      "name": "bidPriceCurrency",
      "outputs": [
        {
          "name": "",
          "type": "string"
        }
      ],
      "payable": false,
      "stateMutability": "view",
      "type": "function"
    },
    {
      "constant": true,
      "inputs": [],
      "name": "description",
      "outputs": [
        {
          "name": "",
          "type": "string"
        }
      ],
      "payable": false,
      "stateMutability": "view",
      "type": "function"
    },
    {
      "constant": true,
      "inputs": [],
      "name": "notExpired",
      "outputs": [
        {
          "name": "",
          "type": "bool"
        }
      ],
      "payable": false,
      "stateMutability": "view",
      "type": "function"
    },
    {
      "constant": true,
      "inputs": [],
      "name": "owner",
      "outputs": [
        {
          "name": "",
          "type": "address"
        }
      ],
      "payable": false,
      "stateMutability": "view",
      "type": "function"
    },
    {
      "constant": true,
      "inputs": [],
      "name": "expirationDate",
      "outputs": [
        {
          "name": "",
          "type": "uint256"
        }
      ],
      "payable": false,
      "stateMutability": "view",
      "type": "function"
    },
    {
      "constant": true,
      "inputs": [],
      "name": "maxBids",
      "outputs": [
        {
          "name": "",
          "type": "uint256"
        }
      ],
      "payable": false,
      "stateMutability": "view",
      "type": "function"
    },
    {
      "constant": false,
      "inputs": [
        {
          "name": "_newOwner",
          "type": "address"
        }
      ],
      "name": "changeOwner",
      "outputs": [],
      "payable": false,
      "stateMutability": "nonpayable",
      "type": "function"
    },
    {
      "constant": true,
      "inputs": [],
      "name": "listingPrice",
      "outputs": [
        {
          "name": "",
          "type": "uint256"
        }
      ],
      "payable": false,
      "stateMutability": "view",
      "type": "function"
    },
    {
      "constant": true,
      "inputs": [],
      "name": "listingPriceCurrency",
      "outputs": [
        {
          "name": "",
          "type": "string"
        }
      ],
      "payable": false,
      "stateMutability": "view",
      "type": "function"
    },
    {
      "constant": true,
      "inputs": [],
      "name": "itemType",
      "outputs": [
        {
          "name": "",
          "type": "string"
        }
      ],
      "payable": false,
      "stateMutability": "view",
      "type": "function"
    },
    {
      "inputs": [
        {
          "name": "_itemTitle",
          "type": "string"
        },
        {
          "name": "_description",
          "type": "string"
        },
        {
          "name": "_itemType",
          "type": "string"
        },
        {
          "name": "_quantity",
          "type": "uint256"
        },
        {
          "name": "_listingPrice",
          "type": "uint256"
        },
        {
          "name": "_listingPriceCurrency",
          "type": "string"
        },
        {
          "name": "_bidPrice",
          "type": "uint256"
        },
        {
          "name": "_bidPriceCurrency",
          "type": "string"
        },
        {
          "name": "_maxBids",
          "type": "uint256"
        }
      ],
      "payable": false,
      "stateMutability": "nonpayable",
      "type": "constructor"
    },
    {
      "constant": false,
      "inputs": [],
      "name": "newBid",
      "outputs": [],
      "payable": false,
      "stateMutability": "nonpayable",
      "type": "function"
    }
  ],
  "bytecode": "0x608060405234801561001057600080fd5b50604051610cd1380380610cd1833981018060405281019080805182019291906020018051820192919060200180518201929190602001805190602001909291908051906020019092919080518201929190602001805190602001909291908051820192919060200180519060200190929190505050336000806101000a81548173ffffffffffffffffffffffffffffffffffffffff021916908373ffffffffffffffffffffffffffffffffffffffff1602179055504260018190555088600390805190602001906100e392919061016a565b5087600490805190602001906100fa92919061016a565b50866005908051906020019061011192919061016a565b508560068190555084600781905550836008908051906020019061013692919061016a565b508260098190555081600a908051906020019061015492919061016a565b5080600b8190555050505050505050505061020f565b828054600181600116156101000203166002900490600052602060002090601f016020900481019282601f106101ab57805160ff19168380011785556101d9565b828001600101855582156101d9579182015b828111156101d85782518255916020019190600101906101bd565b5b5090506101e691906101ea565b5090565b61020c91905b808211156102085760008160009055506001016101f0565b5090565b90565b610ab38061021e6000396000f3006080604052600436106100db576000357c0100000000000000000000000000000000000000000000000000000000900463ffffffff16806317fc45e2146100e057806319afe4731461010b5780632e39114214610136578063325a19f1146101c65780633c09fe3d146101f15780637284e4161461028157806386be5e91146103115780638da5cb5b146103405780638f620487146103975780639f235ccd146103c2578063a6f9dae1146103ed578063c78f19f914610430578063d7097b491461045b578063f26d02e914610472578063f5470d7b14610502575b600080fd5b3480156100ec57600080fd5b506100f5610592565b6040518082815260200191505060405180910390f35b34801561011757600080fd5b50610120610598565b6040518082815260200191505060405180910390f35b34801561014257600080fd5b5061014b61059e565b6040518080602001828103825283818151815260200191508051906020019080838360005b8381101561018b578082015181840152602081019050610170565b50505050905090810190601f1680156101b85780820380516001836020036101000a031916815260200191505b509250505060405180910390f35b3480156101d257600080fd5b506101db61063c565b6040518082815260200191505060405180910390f35b3480156101fd57600080fd5b50610206610642565b6040518080602001828103825283818151815260200191508051906020019080838360005b8381101561024657808201518184015260208101905061022b565b50505050905090810190601f1680156102735780820380516001836020036101000a031916815260200191505b509250505060405180910390f35b34801561028d57600080fd5b506102966106e0565b6040518080602001828103825283818151815260200191508051906020019080838360005b838110156102d65780820151818401526020810190506102bb565b50505050905090810190601f1680156103035780820380516001836020036101000a031916815260200191505b509250505060405180910390f35b34801561031d57600080fd5b5061032661077e565b604051808215151515815260200191505060405180910390f35b34801561034c57600080fd5b5061035561078a565b604051808273ffffffffffffffffffffffffffffffffffffffff1673ffffffffffffffffffffffffffffffffffffffff16815260200191505060405180910390f35b3480156103a357600080fd5b506103ac6107af565b6040518082815260200191505060405180910390f35b3480156103ce57600080fd5b506103d76107b5565b6040518082815260200191505060405180910390f35b3480156103f957600080fd5b5061042e600480360381019080803573ffffffffffffffffffffffffffffffffffffffff1690602001909291905050506107bb565b005b34801561043c57600080fd5b50610445610859565b6040518082815260200191505060405180910390f35b34801561046757600080fd5b5061047061085f565b005b34801561047e57600080fd5b5061048761094b565b6040518080602001828103825283818151815260200191508051906020019080838360005b838110156104c75780820151818401526020810190506104ac565b50505050905090810190601f1680156104f45780820380516001836020036101000a031916815260200191505b509250505060405180910390f35b34801561050e57600080fd5b506105176109e9565b6040518080602001828103825283818151815260200191508051906020019080838360005b8381101561055757808201518184015260208101905061053c565b50505050905090810190601f1680156105845780820380516001836020036101000a031916815260200191505b509250505060405180910390f35b60065481565b60095481565b60038054600181600116156101000203166002900480601f0160208091040260200160405190810160405280929190818152602001828054600181600116156101000203166002900480156106345780601f1061060957610100808354040283529160200191610634565b820191906000526020600020905b81548152906001019060200180831161061757829003601f168201915b505050505081565b60015481565b600a8054600181600116156101000203166002900480601f0160208091040260200160405190810160405280929190818152602001828054600181600116156101000203166002900480156106d85780601f106106ad576101008083540402835291602001916106d8565b820191906000526020600020905b8154815290600101906020018083116106bb57829003601f168201915b505050505081565b60048054600181600116156101000203166002900480601f0160208091040260200160405190810160405280929190818152602001828054600181600116156101000203166002900480156107765780601f1061074b57610100808354040283529160200191610776565b820191906000526020600020905b81548152906001019060200180831161075957829003601f168201915b505050505081565b60006002544210905090565b6000809054906101000a900473ffffffffffffffffffffffffffffffffffffffff1681565b60025481565b600b5481565b6000809054906101000a900473ffffffffffffffffffffffffffffffffffffffff1673ffffffffffffffffffffffffffffffffffffffff163373ffffffffffffffffffffffffffffffffffffffff1614151561081657600080fd5b806000806101000a81548173ffffffffffffffffffffffffffffffffffffffff021916908373ffffffffffffffffffffffffffffffffffffffff16021790555050565b60075481565b600b54600d541015156108da576040517f08c379a000000000000000000000000000000000000000000000000000000000815260040180806020018281038252600c8152602001807f41756374696f6e2066756c6c000000000000000000000000000000000000000081525060200191505060405180910390fd5b33600c6001600d54018154811015156108ef57fe5b9060005260206000200160006101000a81548173ffffffffffffffffffffffffffffffffffffffff021916908373ffffffffffffffffffffffffffffffffffffffff160217905550600d60008154809291906001019190505550565b60088054600181600116156101000203166002900480601f0160208091040260200160405190810160405280929190818152602001828054600181600116156101000203166002900480156109e15780601f106109b6576101008083540402835291602001916109e1565b820191906000526020600020905b8154815290600101906020018083116109c457829003601f168201915b505050505081565b60058054600181600116156101000203166002900480601f016020809104026020016040519081016040528092919081815260200182805460018160011615610100020316600290048015610a7f5780601f10610a5457610100808354040283529160200191610a7f565b820191906000526020600020905b815481529060010190602001808311610a6257829003601f168201915b5050505050815600a165627a7a72305820c466d5f694a51c9e7ccee8103644c19e95be83300571d2c34515c868b5f8c31b0029",
  "source": "pragma solidity ^0.4.21;\n\nimport { Owned } from \"./Owned.sol\";\nimport { Created } from \"./Created.sol\";\nimport { Timelocked } from \"./Timelocked.sol\";\nimport { SafeMath } from \"./SafeMath.sol\";\n\n\n/**\n * The Swap contract: This is the swap contract\n */\ncontract GNRAuction is Owned, Created, Timelocked {\n\n    using SafeMath for uint;\n\n    string public itemTitle;\n    string public description;\n    string public itemType;\n    uint public quantity;\n    uint public listingPrice;\n    string public listingPriceCurrency;\n    uint public bidPrice;\n    string public bidPriceCurrency;\n    uint public maxBids;\n    address[] bidders;\n    uint currentBidCount;\n\n    /**\n     * @dev Constructs a new GNRAuction\n     * @param _itemTitle item title\n     * @param _description item description\n     * @param _itemType the type of the item \n     * @param _quantity item quantity\n     * @param _listingPrice the price of the item\n     * @param _listingPriceCurrency currency of listing price\n     * @param _bidPrice the price of the bid\n     * @param _bidPriceCurrency currency of bid price\n     */\n    constructor(\n        string _itemTitle, string _description, string _itemType, uint _quantity, uint _listingPrice, string _listingPriceCurrency, uint _bidPrice, string _bidPriceCurrency, uint _maxBids\n    )\n    public\n    {\n        itemTitle = _itemTitle;\n        description = _description;\n        itemType = _itemType;\n        quantity = _quantity;\n        listingPrice = _listingPrice;\n        listingPriceCurrency = _listingPriceCurrency;\n        bidPrice = _bidPrice;\n        bidPriceCurrency = _bidPriceCurrency;\n        maxBids = _maxBids;\n    }\n\n    /**\n    * @dev This function to add new bidder\n    */\n    function newBid() external auctionOpen {\n        \n        bidders[currentBidCount + 1] = msg.sender;\n        currentBidCount++;\n    }\n\n    modifier auctionOpen() {\n        require (currentBidCount < maxBids, \"Auction full\");\n        _;\n    }\n}\n",
  "sourcePath": "/Users/rawad/github.com/auction/sdk/contracts/GNRAuction.sol",
  "compiler": {
    "name": "solc",
    "version": "0.4.24+commit.e67f0147.Emscripten.clang"
  },
  "schemaVersion": "2.0.1",
  "updatedAt": "2018-11-18T06:18:39.625Z"
}