{
  "contractName": "Owned",
  "abi": [
    {
      "constant": true,
      "inputs": [],
      "name": "owner",
      "outputs": [
        {
          "name": "",
          "type": "address"
        }
      ],
      "payable": false,
      "stateMutability": "view",
      "type": "function"
    },
    {
      "inputs": [],
      "payable": false,
      "stateMutability": "nonpayable",
      "type": "constructor"
    },
    {
      "constant": false,
      "inputs": [
        {
          "name": "_newOwner",
          "type": "address"
        }
      ],
      "name": "changeOwner",
      "outputs": [],
      "payable": false,
      "stateMutability": "nonpayable",
      "type": "function"
    }
  ],
  "bytecode": "0x608060405234801561001057600080fd5b50336000806101000a81548173ffffffffffffffffffffffffffffffffffffffff021916908373ffffffffffffffffffffffffffffffffffffffff1602179055506101da806100606000396000f30060806040526004361061004c576000357c0100000000000000000000000000000000000000000000000000000000900463ffffffff1680638da5cb5b14610051578063a6f9dae1146100a8575b600080fd5b34801561005d57600080fd5b506100666100eb565b604051808273ffffffffffffffffffffffffffffffffffffffff1673ffffffffffffffffffffffffffffffffffffffff16815260200191505060405180910390f35b3480156100b457600080fd5b506100e9600480360381019080803573ffffffffffffffffffffffffffffffffffffffff169060200190929190505050610110565b005b6000809054906101000a900473ffffffffffffffffffffffffffffffffffffffff1681565b6000809054906101000a900473ffffffffffffffffffffffffffffffffffffffff1673ffffffffffffffffffffffffffffffffffffffff163373ffffffffffffffffffffffffffffffffffffffff1614151561016b57600080fd5b806000806101000a81548173ffffffffffffffffffffffffffffffffffffffff021916908373ffffffffffffffffffffffffffffffffffffffff160217905550505600a165627a7a723058200d45684494630f3b27170ab0cb5492eae93c33d91c8056757f94d7a682f6d37a0029",
  "source": "pragma solidity ^0.4.24;\n\n/**\n * The Owned contract: Used to store the owner of a contract\n */\ncontract Owned {\n\n    address public owner;\n\n    /**\n     * @dev constructs a new Owned contract and sets owner\n     */\n    function Owned() public {\n        owner = msg.sender;\n    }\n\n    /**\n     * @dev changes the owner\n     * @param _newOwner the address of the new owner\n     */\n    function changeOwner(address _newOwner) public onlyOwner {\n        owner = _newOwner;\n    }\n\n    modifier onlyOwner() {\n        require(msg.sender == owner);\n        _;\n    }\n}\n",
  "sourcePath": "/Users/rawad/github.com/auction/sdk/contracts/Owned.sol",
  "compiler": {
    "name": "solc",
    "version": "0.4.24+commit.e67f0147.Emscripten.clang"
  },
  "schemaVersion": "2.0.1",
  "updatedAt": "2018-11-18T06:18:39.625Z"
}