{
  "contractName": "Timelocked",
  "abi": [
    {
      "constant": true,
      "inputs": [],
      "name": "expirationDate",
      "outputs": [
        {
          "name": "",
          "type": "uint256"
        }
      ],
      "payable": false,
      "stateMutability": "view",
      "type": "function"
    },
    {
      "constant": true,
      "inputs": [],
      "name": "notExpired",
      "outputs": [
        {
          "name": "",
          "type": "bool"
        }
      ],
      "payable": false,
      "stateMutability": "view",
      "type": "function"
    }
  ],
  "bytecode": "0x608060405234801561001057600080fd5b5060df8061001f6000396000f3006080604052600436106049576000357c0100000000000000000000000000000000000000000000000000000000900463ffffffff16806386be5e9114604e5780638f62048714607a575b600080fd5b348015605957600080fd5b50606060a2565b604051808215151515815260200191505060405180910390f35b348015608557600080fd5b50608c60ad565b6040518082815260200191505060405180910390f35b600080544210905090565b600054815600a165627a7a7230582042347f7dcb5477c24a873e8d69023fd271a34fb692b5707406b5a434f6c627930029",
  "source": "pragma solidity ^0.4.24;\n\n/**\n * The Timelocked contract: Used to specify a contract has an expirationDate\n */\ncontract Timelocked {\n    \n    uint public expirationDate;\n\n    function notExpired() public view returns (bool) {\n        return now < expirationDate;\n    }\n}\n",
  "sourcePath": "/Users/rawad/github.com/auction/sdk/contracts/Timelocked.sol",
  "compiler": {
    "name": "solc",
    "version": "0.4.24+commit.e67f0147.Emscripten.clang"
  },
  "schemaVersion": "2.0.1",
  "updatedAt": "2018-11-19T01:11:47.066Z"
}